{
  "contractName": "Ownership",
  "abi": [
    {
      "constant": true,
      "inputs": [],
      "name": "owner",
      "outputs": [
        {
          "name": "",
          "type": "address"
        }
      ],
      "payable": false,
      "stateMutability": "view",
      "type": "function"
    },
    {
      "inputs": [
        {
          "name": "_name",
          "type": "bytes32"
        }
      ],
      "payable": false,
      "stateMutability": "nonpayable",
      "type": "constructor"
    },
    {
      "anonymous": false,
      "inputs": [
        {
          "indexed": false,
          "name": "status",
          "type": "bool"
        },
        {
          "indexed": false,
          "name": "timestamp",
          "type": "uint256"
        },
        {
          "indexed": false,
          "name": "owner",
          "type": "address"
        },
        {
          "indexed": false,
          "name": "artHash",
          "type": "bytes32"
        }
      ],
      "name": "ArtLogStatus",
      "type": "event"
    },
    {
      "anonymous": false,
      "inputs": [
        {
          "indexed": true,
          "name": "previousOwner",
          "type": "address"
        },
        {
          "indexed": true,
          "name": "newOwner",
          "type": "address"
        }
      ],
      "name": "OwnershipTransferred",
      "type": "event"
    },
    {
      "constant": false,
      "inputs": [
        {
          "name": "_owner",
          "type": "address"
        },
        {
          "name": "_artHash",
          "type": "bytes32"
        }
      ],
      "name": "setOwner",
      "outputs": [],
      "payable": false,
      "stateMutability": "nonpayable",
      "type": "function"
    },
    {
      "constant": false,
      "inputs": [
        {
          "name": "_newOwner",
          "type": "address"
        }
      ],
      "name": "transferOwnership",
      "outputs": [],
      "payable": false,
      "stateMutability": "nonpayable",
      "type": "function"
    }
  ],
  "bytecode": "0x608060405234801561001057600080fd5b5060405160208061055c8339810180604052602081101561003057600080fd5b8101908080519060200190929190505050336000806101000a81548173ffffffffffffffffffffffffffffffffffffffff021916908373ffffffffffffffffffffffffffffffffffffffff16021790555080600181905550506104c4806100986000396000f3fe608060405260043610610057576000357c0100000000000000000000000000000000000000000000000000000000900463ffffffff1680638da5cb5b1461005c57806399d3c204146100b3578063f2fde38b1461010e575b600080fd5b34801561006857600080fd5b5061007161015f565b604051808273ffffffffffffffffffffffffffffffffffffffff1673ffffffffffffffffffffffffffffffffffffffff16815260200191505060405180910390f35b3480156100bf57600080fd5b5061010c600480360360408110156100d657600080fd5b81019080803573ffffffffffffffffffffffffffffffffffffffff16906020019092919080359060200190929190505050610184565b005b34801561011a57600080fd5b5061015d6004803603602081101561013157600080fd5b81019080803573ffffffffffffffffffffffffffffffffffffffff169060200190929190505050610343565b005b6000809054906101000a900473ffffffffffffffffffffffffffffffffffffffff1681565b6000600360008381526020019081526020016000206000015414156102bc5760408051908101604052804281526020018373ffffffffffffffffffffffffffffffffffffffff16815250600360008381526020019081526020016000206000820151816000015560208201518160010160006101000a81548173ffffffffffffffffffffffffffffffffffffffff021916908373ffffffffffffffffffffffffffffffffffffffff1602179055509050507fd26faefbf01f97d2923a725440e43107a8a5e8bf83a4aa0b849be8b8008d8c266001428460025460405180851515151581526020018481526020018373ffffffffffffffffffffffffffffffffffffffff1673ffffffffffffffffffffffffffffffffffffffff16815260200182815260200194505050505060405180910390a161033f565b7fd26faefbf01f97d2923a725440e43107a8a5e8bf83a4aa0b849be8b8008d8c266000428460025460405180851515151581526020018481526020018373ffffffffffffffffffffffffffffffffffffffff1673ffffffffffffffffffffffffffffffffffffffff16815260200182815260200194505050505060405180910390a15b5050565b6000809054906101000a900473ffffffffffffffffffffffffffffffffffffffff1673ffffffffffffffffffffffffffffffffffffffff163373ffffffffffffffffffffffffffffffffffffffff1614151561039e57600080fd5b600073ffffffffffffffffffffffffffffffffffffffff168173ffffffffffffffffffffffffffffffffffffffff16141515156103da57600080fd5b8073ffffffffffffffffffffffffffffffffffffffff166000809054906101000a900473ffffffffffffffffffffffffffffffffffffffff1673ffffffffffffffffffffffffffffffffffffffff167f8be0079c531659141344cd1fd0a4f28419497f9722a3daafe3b4186f6b6457e060405160405180910390a3806000806101000a81548173ffffffffffffffffffffffffffffffffffffffff021916908373ffffffffffffffffffffffffffffffffffffffff1602179055505056fea165627a7a72305820607f7b09f59ff9d21e7e5b389f1a08e374ca9ea41809290eb3234c5e284051860029",
  "source": "pragma solidity >=0.4.22 <0.7.0;\r\n\r\ncontract Ownership {\r\n  address public owner;\r\n  bytes32 name;\r\n  bytes32 artHash;\r\n\r\n    modifier isOwner() {\r\n        require(msg.sender == owner);\r\n        _;\r\n    }\r\n  \r\n    struct ArtMapping {\r\n        uint timestamp;\r\n        address owner;\r\n    }\r\n\r\n    // validates the current Ownership\r\n    event ArtLogStatus(bool status, uint timestamp, address owner, bytes32 artHash);\r\n    \r\n    // triggers event of the Ownership transfer\r\n    event OwnershipTransferred(address indexed previousOwner, address indexed newOwner);\r\n    \r\n    mapping (bytes32 => ArtMapping) artwork;\r\n    \r\n  constructor(bytes32 _name) public {\r\n      owner = msg.sender;\r\n      name = _name;\r\n    }\r\n    \r\n    // stores the owner of the artwork in a timestamp block\r\n    function setOwner(address _owner, bytes32 _artHash) public {\r\n        if (artwork[_artHash].timestamp == 0) {\r\n          artwork[_artHash] = ArtMapping(block.timestamp, _owner);\r\n        \r\n          // triggers an event to the frontend as validation since when and who owns the artwork\r\n          emit ArtLogStatus(true, block.timestamp, _owner, artHash);\r\n        } else {\r\n          // returns a false value to frontend\r\n          emit ArtLogStatus(false, block.timestamp, _owner, artHash);\r\n        }\r\n    }\r\n    \r\n    // returns artwork information to the frontend\r\n    function getOwner(bytes32 _artHash) internal view returns (uint, address) {\r\n        return (artwork[_artHash].timestamp, artwork[_artHash].owner);\r\n    }\r\n    \r\n    // transfers the ownership of the contract to a new adress\r\n    function transferOwnership(address _newOwner) public isOwner {\r\n        // function just can be called from the previous owner\r\n        require(_newOwner != address(0));\r\n        emit OwnershipTransferred(owner, _newOwner);\r\n        owner = _newOwner;\r\n    }\r\n\r\n}",
  "sourcePath": "C:/Users/julia/Dev/Studium/BlockArt/blockchain/contracts/ownership.sol",
  "compiler": {
    "name": "solc",
    "version": "0.5.0+commit.1d4f565a.Emscripten.clang"
  },
  "schemaVersion": "3.0.1",
  "updatedAt": "2020-01-22T17:41:39.867Z",
  "devdoc": {
    "methods": {}
  },
  "userdoc": {
    "methods": {}
  }
}